{
  "contractName": "Ewaste",
  "abi": [
    {
      "anonymous": false,
      "inputs": [
        {
          "indexed": false,
          "name": "sender",
          "type": "address"
        }
      ],
      "name": "LoginAttempt",
      "type": "event"
    },
    {
      "anonymous": false,
      "inputs": [
        {
          "indexed": false,
          "name": "user",
          "type": "address"
        },
        {
          "indexed": false,
          "name": "userType",
          "type": "string"
        }
      ],
      "name": "Registration",
      "type": "event"
    },
    {
      "constant": false,
      "inputs": [],
      "name": "login",
      "outputs": [
        {
          "name": "userName",
          "type": "string"
        },
        {
          "name": "accountType",
          "type": "string"
        }
      ],
      "payable": false,
      "stateMutability": "nonpayable",
      "type": "function"
    },
    {
      "constant": false,
      "inputs": [
        {
          "name": "userName",
          "type": "string"
        },
        {
          "name": "contactAddress",
          "type": "string"
        },
        {
          "name": "accountType",
          "type": "string"
        }
      ],
      "name": "registration",
      "outputs": [],
      "payable": false,
      "stateMutability": "nonpayable",
      "type": "function"
    },
    {
      "constant": false,
      "inputs": [
        {
          "name": "id",
          "type": "uint256"
        },
        {
          "name": "man",
          "type": "address"
        },
        {
          "name": "agg",
          "type": "address"
        },
        {
          "name": "rec",
          "type": "address"
        },
        {
          "name": "cat",
          "type": "string"
        },
        {
          "name": "des",
          "type": "string"
        },
        {
          "name": "amount",
          "type": "uint256"
        }
      ],
      "name": "addList",
      "outputs": [
        {
          "name": "",
          "type": "bool"
        }
      ],
      "payable": false,
      "stateMutability": "nonpayable",
      "type": "function"
    },
    {
      "constant": true,
      "inputs": [],
      "name": "getMyList",
      "outputs": [
        {
          "name": "",
          "type": "uint256[]"
        }
      ],
      "payable": false,
      "stateMutability": "view",
      "type": "function"
    },
    {
      "constant": true,
      "inputs": [
        {
          "name": "id",
          "type": "uint256"
        }
      ],
      "name": "getMyListDetail",
      "outputs": [
        {
          "name": "",
          "type": "string"
        },
        {
          "name": "",
          "type": "string"
        },
        {
          "name": "",
          "type": "string"
        },
        {
          "name": "status",
          "type": "uint8"
        },
        {
          "name": "",
          "type": "uint256"
        }
      ],
      "payable": false,
      "stateMutability": "view",
      "type": "function"
    },
    {
      "constant": true,
      "inputs": [],
      "name": "getAllIds",
      "outputs": [
        {
          "name": "",
          "type": "uint256[]"
        }
      ],
      "payable": false,
      "stateMutability": "view",
      "type": "function"
    },
    {
      "constant": true,
      "inputs": [
        {
          "name": "id",
          "type": "uint256"
        },
        {
          "name": "aggregator",
          "type": "address"
        }
      ],
      "name": "getListForAggregator",
      "outputs": [
        {
          "name": "",
          "type": "uint256"
        },
        {
          "name": "",
          "type": "string"
        },
        {
          "name": "",
          "type": "string"
        },
        {
          "name": "",
          "type": "string"
        },
        {
          "name": "amount",
          "type": "uint256"
        }
      ],
      "payable": false,
      "stateMutability": "view",
      "type": "function"
    },
    {
      "constant": false,
      "inputs": [
        {
          "name": "id",
          "type": "uint256"
        },
        {
          "name": "aggregator",
          "type": "address"
        }
      ],
      "name": "approveAggregate",
      "outputs": [
        {
          "name": "",
          "type": "bool"
        }
      ],
      "payable": false,
      "stateMutability": "nonpayable",
      "type": "function"
    },
    {
      "constant": true,
      "inputs": [
        {
          "name": "id",
          "type": "uint256"
        },
        {
          "name": "recycler",
          "type": "address"
        }
      ],
      "name": "getListForRecycler",
      "outputs": [
        {
          "name": "",
          "type": "uint256"
        },
        {
          "name": "",
          "type": "string"
        },
        {
          "name": "",
          "type": "string"
        },
        {
          "name": "",
          "type": "string"
        },
        {
          "name": "amount",
          "type": "uint256"
        }
      ],
      "payable": false,
      "stateMutability": "view",
      "type": "function"
    },
    {
      "constant": false,
      "inputs": [
        {
          "name": "id",
          "type": "uint256"
        },
        {
          "name": "recycler",
          "type": "address"
        }
      ],
      "name": "approveRecycler",
      "outputs": [
        {
          "name": "",
          "type": "bool"
        }
      ],
      "payable": false,
      "stateMutability": "nonpayable",
      "type": "function"
    }
  ],
  "bytecode": "0x608060405234801561001057600080fd5b50611f12806100206000396000f3fe6080604052600436106100a4576000357c0100000000000000000000000000000000000000000000000000000000900463ffffffff1680630753afdf146100a957806327d75eda1461029f5780632d4ed8bf1461048a57806341094916146106325780636ba64ef1146107ec57806376a0f23f1461085f5780639b0eee07146108cb578063aaa44e5c1461093e578063b34e97e8146109aa578063b9f074b214610aa6575b600080fd5b3480156100b557600080fd5b5061029d600480360360608110156100cc57600080fd5b81019080803590602001906401000000008111156100e957600080fd5b8201836020820111156100fb57600080fd5b8035906020019184600183028401116401000000008311171561011d57600080fd5b91908080601f016020809104026020016040519081016040528093929190818152602001838380828437600081840152601f19601f8201169050808301925050505050505091929192908035906020019064010000000081111561018057600080fd5b82018360208201111561019257600080fd5b803590602001918460018302840111640100000000831117156101b457600080fd5b91908080601f016020809104026020016040519081016040528093929190818152602001838380828437600081840152601f19601f8201169050808301925050505050505091929192908035906020019064010000000081111561021757600080fd5b82018360208201111561022957600080fd5b8035906020019184600183028401116401000000008311171561024b57600080fd5b91908080601f016020809104026020016040519081016040528093929190818152602001838380828437600081840152601f19601f820116905080830192505050505050509192919290505050610c60565b005b3480156102ab57600080fd5b50610470600480360360e08110156102c257600080fd5b8101908080359060200190929190803573ffffffffffffffffffffffffffffffffffffffff169060200190929190803573ffffffffffffffffffffffffffffffffffffffff169060200190929190803573ffffffffffffffffffffffffffffffffffffffff1690602001909291908035906020019064010000000081111561034957600080fd5b82018360208201111561035b57600080fd5b8035906020019184600183028401116401000000008311171561037d57600080fd5b91908080601f016020809104026020016040519081016040528093929190818152602001838380828437600081840152601f19601f820116905080830192505050505050509192919290803590602001906401000000008111156103e057600080fd5b8201836020820111156103f257600080fd5b8035906020019184600183028401116401000000008311171561041457600080fd5b91908080601f016020809104026020016040519081016040528093929190818152602001838380828437600081840152601f19601f82011690508083019250505050505050919291929080359060200190929190505050610eb7565b604051808215151515815260200191505060405180910390f35b34801561049657600080fd5b506104c3600480360360208110156104ad57600080fd5b810190808035906020019092919050505061111e565b604051808060200180602001806020018660038111156104df57fe5b60ff168152602001858152602001848103845289818151815260200191508051906020019080838360005b8381101561052557808201518184015260208101905061050a565b50505050905090810190601f1680156105525780820380516001836020036101000a031916815260200191505b50848103835288818151815260200191508051906020019080838360005b8381101561058b578082015181840152602081019050610570565b50505050905090810190601f1680156105b85780820380516001836020036101000a031916815260200191505b50848103825287818151815260200191508051906020019080838360005b838110156105f15780820151818401526020810190506105d6565b50505050905090810190601f16801561061e5780820380516001836020036101000a031916815260200191505b509850505050505050505060405180910390f35b34801561063e57600080fd5b5061068b6004803603604081101561065557600080fd5b8101908080359060200190929190803573ffffffffffffffffffffffffffffffffffffffff1690602001909291905050506113eb565b60405180868152602001806020018060200180602001858152602001848103845288818151815260200191508051906020019080838360005b838110156106df5780820151818401526020810190506106c4565b50505050905090810190601f16801561070c5780820380516001836020036101000a031916815260200191505b50848103835287818151815260200191508051906020019080838360005b8381101561074557808201518184015260208101905061072a565b50505050905090810190601f1680156107725780820380516001836020036101000a031916815260200191505b50848103825286818151815260200191508051906020019080838360005b838110156107ab578082015181840152602081019050610790565b50505050905090810190601f1680156107d85780820380516001836020036101000a031916815260200191505b509850505050505050505060405180910390f35b3480156107f857600080fd5b506108456004803603604081101561080f57600080fd5b8101908080359060200190929190803573ffffffffffffffffffffffffffffffffffffffff169060200190929190505050611767565b604051808215151515815260200191505060405180910390f35b34801561086b57600080fd5b5061087461186f565b6040518080602001828103825283818151815260200191508051906020019060200280838360005b838110156108b757808201518184015260208101905061089c565b505050509050019250505060405180910390f35b3480156108d757600080fd5b50610924600480360360408110156108ee57600080fd5b8101908080359060200190929190803573ffffffffffffffffffffffffffffffffffffffff169060200190929190505050611906565b604051808215151515815260200191505060405180910390f35b34801561094a57600080fd5b5061095361199f565b6040518080602001828103825283818151815260200191508051906020019060200280838360005b8381101561099657808201518184015260208101905061097b565b505050509050019250505060405180910390f35b3480156109b657600080fd5b506109bf6119f7565b604051808060200180602001838103835285818151815260200191508051906020019080838360005b83811015610a035780820151818401526020810190506109e8565b50505050905090810190601f168015610a305780820380516001836020036101000a031916815260200191505b50838103825284818151815260200191508051906020019080838360005b83811015610a69578082015181840152602081019050610a4e565b50505050905090810190601f168015610a965780820380516001836020036101000a031916815260200191505b5094505050505060405180910390f35b348015610ab257600080fd5b50610aff60048036036040811015610ac957600080fd5b8101908080359060200190929190803573ffffffffffffffffffffffffffffffffffffffff169060200190929190505050611ac4565b60405180868152602001806020018060200180602001858152602001848103845288818151815260200191508051906020019080838360005b83811015610b53578082015181840152602081019050610b38565b50505050905090810190601f168015610b805780820380516001836020036101000a031916815260200191505b50848103835287818151815260200191508051906020019080838360005b83811015610bb9578082015181840152602081019050610b9e565b50505050905090810190601f168015610be65780820380516001836020036101000a031916815260200191505b50848103825286818151815260200191508051906020019080838360005b83811015610c1f578082015181840152602081019050610c04565b50505050905090810190601f168015610c4c5780820380516001836020036101000a031916815260200191505b509850505050505050505060405180910390f35b336000803373ffffffffffffffffffffffffffffffffffffffff1673ffffffffffffffffffffffffffffffffffffffff16815260200190815260200160002060000160006101000a81548173ffffffffffffffffffffffffffffffffffffffff021916908373ffffffffffffffffffffffffffffffffffffffff160217905550826000803373ffffffffffffffffffffffffffffffffffffffff1673ffffffffffffffffffffffffffffffffffffffff1681526020019081526020016000206001019080519060200190610d35929190611e41565b50816000803373ffffffffffffffffffffffffffffffffffffffff1673ffffffffffffffffffffffffffffffffffffffff1681526020019081526020016000206002019080519060200190610d8b929190611e41565b50806000803373ffffffffffffffffffffffffffffffffffffffff1673ffffffffffffffffffffffffffffffffffffffff1681526020019081526020016000206003019080519060200190610de1929190611e41565b507f0d8d636375a5c89a44d886dc1bd7257c82dbf9d475396c77cdbf443158ecf4e83382604051808373ffffffffffffffffffffffffffffffffffffffff1673ffffffffffffffffffffffffffffffffffffffff16815260200180602001828103825283818151815260200191508051906020019080838360005b83811015610e77578082015181840152602081019050610e5c565b50505050905090810190601f168015610ea45780820380516001836020036101000a031916815260200191505b50935050505060405180910390a1505050565b600087600160008a81526020019081526020016000206000018190555086600160008a815260200190815260200160002060010160006101000a81548173ffffffffffffffffffffffffffffffffffffffff021916908373ffffffffffffffffffffffffffffffffffffffff16021790555085600160008a815260200190815260200160002060020160006101000a81548173ffffffffffffffffffffffffffffffffffffffff021916908373ffffffffffffffffffffffffffffffffffffffff16021790555084600160008a815260200190815260200160002060030160006101000a81548173ffffffffffffffffffffffffffffffffffffffff021916908373ffffffffffffffffffffffffffffffffffffffff16021790555083600160008a81526020019081526020016000206004019080519060200190610ffd929190611e41565b5082600160008a81526020019081526020016000206005019080519060200190611028929190611e41565b5081600160008a8152602001908152602001600020600601819055506000600160008a815260200190815260200160002060070160006101000a81548160ff0219169083600381111561107757fe5b02179055506000803373ffffffffffffffffffffffffffffffffffffffff1673ffffffffffffffffffffffffffffffffffffffff1681526020019081526020016000206004018890806001815401808255809150509060018203906000526020600020016000909192909190915055506002889080600181540180825580915050906001820390600052602060002001600090919290919091505550979650505050505050565b60608060606000806000806001600089815260200190815260200160002060020160009054906101000a900473ffffffffffffffffffffffffffffffffffffffff1673ffffffffffffffffffffffffffffffffffffffff1673ffffffffffffffffffffffffffffffffffffffff1681526020019081526020016000206001016001600088815260200190815260200160002060040160016000898152602001908152602001600020600501600160008a815260200190815260200160002060070160009054906101000a900460ff16600160008b815260200190815260200160002060060154848054600181600116156101000203166002900480601f0160208091040260200160405190810160405280929190818152602001828054600181600116156101000203166002900480156112995780601f1061126e57610100808354040283529160200191611299565b820191906000526020600020905b81548152906001019060200180831161127c57829003601f168201915b50505050509450838054600181600116156101000203166002900480601f0160208091040260200160405190810160405280929190818152602001828054600181600116156101000203166002900480156113355780601f1061130a57610100808354040283529160200191611335565b820191906000526020600020905b81548152906001019060200180831161131857829003601f168201915b50505050509350828054600181600116156101000203166002900480601f0160208091040260200160405190810160405280929190818152602001828054600181600116156101000203166002900480156113d15780601f106113a6576101008083540402835291602001916113d1565b820191906000526020600020905b8154815290600101906020018083116113b457829003601f168201915b505050505092509450945094509450945091939590929450565b60006060806060600080600381111561140057fe5b6001600089815260200190815260200160002060070160009054906101000a900460ff16600381111561142f57fe5b14151561143b57600080fd5b8573ffffffffffffffffffffffffffffffffffffffff166001600089815260200190815260200160002060020160009054906101000a900473ffffffffffffffffffffffffffffffffffffffff1673ffffffffffffffffffffffffffffffffffffffff161415156114ab57600080fd5b6060600080600160008b815260200190815260200160002060010160009054906101000a900473ffffffffffffffffffffffffffffffffffffffff1673ffffffffffffffffffffffffffffffffffffffff1673ffffffffffffffffffffffffffffffffffffffff1681526020019081526020016000206001018054600181600116156101000203166002900480601f0160208091040260200160405190810160405280929190818152602001828054600181600116156101000203166002900480156115b85780601f1061158d576101008083540402835291602001916115b8565b820191906000526020600020905b81548152906001019060200180831161159b57829003601f168201915b50505050509050600160008981526020019081526020016000206000015481600160008b8152602001908152602001600020600401600160008c8152602001908152602001600020600501600160008d815260200190815260200160002060060154828054600181600116156101000203166002900480601f0160208091040260200160405190810160405280929190818152602001828054600181600116156101000203166002900480156116af5780601f10611684576101008083540402835291602001916116af565b820191906000526020600020905b81548152906001019060200180831161169257829003601f168201915b50505050509250818054600181600116156101000203166002900480601f01602080910402602001604051908101604052809291908181526020018280546001816001161561010002031660029004801561174b5780601f106117205761010080835404028352916020019161174b565b820191906000526020600020905b81548152906001019060200180831161172e57829003601f168201915b5050505050915095509550955095509550509295509295909350565b60008173ffffffffffffffffffffffffffffffffffffffff166001600085815260200190815260200160002060020160009054906101000a900473ffffffffffffffffffffffffffffffffffffffff1673ffffffffffffffffffffffffffffffffffffffff161415156117d957600080fd5b816001600085815260200190815260200160002060020160006101000a81548173ffffffffffffffffffffffffffffffffffffffff021916908373ffffffffffffffffffffffffffffffffffffffff160217905550600180600085815260200190815260200160002060070160006101000a81548160ff0219169083600381111561186057fe5b02179055506001905092915050565b60606000803373ffffffffffffffffffffffffffffffffffffffff1673ffffffffffffffffffffffffffffffffffffffff1681526020019081526020016000206004018054806020026020016040519081016040528092919081815260200182805480156118fc57602002820191906000526020600020905b8154815260200190600101908083116118e8575b5050505050905090565b6000816001600085815260200190815260200160002060030160006101000a81548173ffffffffffffffffffffffffffffffffffffffff021916908373ffffffffffffffffffffffffffffffffffffffff16021790555060026001600085815260200190815260200160002060070160006101000a81548160ff0219169083600381111561199057fe5b02179055506001905092915050565b606060028054806020026020016040519081016040528092919081815260200182805480156119ed57602002820191906000526020600020905b8154815260200190600101908083116119d9575b5050505050905090565b6060806000803373ffffffffffffffffffffffffffffffffffffffff1673ffffffffffffffffffffffffffffffffffffffff16815260200190815260200160002060000160009054906101000a900473ffffffffffffffffffffffffffffffffffffffff1673ffffffffffffffffffffffffffffffffffffffff163373ffffffffffffffffffffffffffffffffffffffff161415611a9457611abf565b6020604051908101604052806000815250602060405190810160405280600081525091509150611ac0565b5b9091565b60006060806060600060016003811115611ada57fe5b6001600089815260200190815260200160002060070160009054906101000a900460ff166003811115611b0957fe5b141515611b1557600080fd5b8573ffffffffffffffffffffffffffffffffffffffff166001600089815260200190815260200160002060030160009054906101000a900473ffffffffffffffffffffffffffffffffffffffff1673ffffffffffffffffffffffffffffffffffffffff16141515611b8557600080fd5b6060600080600160008b815260200190815260200160002060010160009054906101000a900473ffffffffffffffffffffffffffffffffffffffff1673ffffffffffffffffffffffffffffffffffffffff1673ffffffffffffffffffffffffffffffffffffffff1681526020019081526020016000206001018054600181600116156101000203166002900480601f016020809104026020016040519081016040528092919081815260200182805460018160011615610100020316600290048015611c925780601f10611c6757610100808354040283529160200191611c92565b820191906000526020600020905b815481529060010190602001808311611c7557829003601f168201915b50505050509050600160008981526020019081526020016000206000015481600160008b8152602001908152602001600020600401600160008c8152602001908152602001600020600501600160008d815260200190815260200160002060060154828054600181600116156101000203166002900480601f016020809104026020016040519081016040528092919081815260200182805460018160011615610100020316600290048015611d895780601f10611d5e57610100808354040283529160200191611d89565b820191906000526020600020905b815481529060010190602001808311611d6c57829003601f168201915b50505050509250818054600181600116156101000203166002900480601f016020809104026020016040519081016040528092919081815260200182805460018160011615610100020316600290048015611e255780601f10611dfa57610100808354040283529160200191611e25565b820191906000526020600020905b815481529060010190602001808311611e0857829003601f168201915b5050505050915095509550955095509550509295509295909350565b828054600181600116156101000203166002900490600052602060002090601f016020900481019282601f10611e8257805160ff1916838001178555611eb0565b82800160010185558215611eb0579182015b82811115611eaf578251825591602001919060010190611e94565b5b509050611ebd9190611ec1565b5090565b611ee391905b80821115611edf576000816000905550600101611ec7565b5090565b9056fea165627a7a72305820715ab2f89eec028fcfcbe2f712803b3bb2a560de520859a76aa4148ae2ed00240029",
  "source": "pragma solidity ^0.5.0;\ncontract Ewaste{\nevent LoginAttempt(address sender);\nevent Registration(address user,string userType);\nenum Status {create, aggregate, recycle, complete}\nstruct userData{\naddress userAddress;\nstring userName;\nstring contactAddress;\nstring accountType;\nuint[] myIds;\n}\n\nstruct List{\n        uint listId;\n        address manufacture;\n        address aggregator;\n        address recycler;\n        string category;\n        string description;\n        uint amountOffered;\n        Status status;\n    }\nmapping(address => userData) users;\nmapping (uint => List) lists;\nuint[] allIds;\n\nfunction login() public returns (string memory userName,string memory accountType){\nif(msg.sender==users[msg.sender].userAddress){\n}else{\nreturn (\"\",\"\");\n}\n\n}\nfunction registration (string memory userName,string memory contactAddress,string memory accountType) public{\n  users[msg.sender].userAddress=msg.sender;\n  users[msg.sender].userName=userName;\n  users[msg.sender].contactAddress=contactAddress;\n  users[msg.sender].accountType=accountType;\n  emit Registration(msg.sender,accountType);\n}\nfunction addList( uint id, address man,address agg,address rec, string memory cat, string memory des,uint amount) public returns(bool){\n        lists[id].listId=id;\n        lists[id].manufacture=man;\n        lists[id].aggregator=agg;\n        lists[id].recycler=rec;\n        lists[id].category=cat;\n        lists[id].description=des;\n        lists[id].amountOffered=amount;\n        lists[id].status=Status.create;\n        users[msg.sender].myIds.push(id);\n        allIds.push(id);\n    }\n    \n     function getMyList()public view returns(uint[] memory){\n       return users[msg.sender].myIds;\n    }\n    \n    function getMyListDetail(uint id) public view returns(string memory, string memory,string memory,Status status,uint){\n        return (users[lists[id].aggregator].userName,lists[id].category,lists[id].description,lists[id].status,lists[id].amountOffered);\n    }\n    \n    function getAllIds() public view returns(uint[] memory){\n        return allIds;\n    }\n    function getListForAggregator(uint id, address aggregator) public view returns(uint,string memory, string memory, string memory, uint amount){\n        require(lists[id].status==Status.create);\n        require(lists[id].aggregator==aggregator);\n        string memory name=users[lists[id].manufacture].userName;\n        return (lists[id].listId,name,lists[id].category,lists[id].description,lists[id].amountOffered);\n    }\n    \n    function approveAggregate(uint id, address aggregator) public returns(bool){\n         require(lists[id].aggregator==aggregator);\n        lists[id].aggregator=aggregator;\n        lists[id].status=Status.aggregate;\n        return true;\n    }\n    \n    /**\n     * aggregator can add the recycler in this function\n     */\n      function getListForRecycler(uint id, address recycler) public view returns(uint,string memory, string memory, string memory, uint amount){\n        require(lists[id].status==Status.aggregate);\n        require(lists[id].recycler==recycler);\n        string memory name=users[lists[id].manufacture].userName;\n        return (lists[id].listId,name,lists[id].category,lists[id].description,lists[id].amountOffered);\n    }\n    \n    function approveRecycler(uint id, address recycler) public returns(bool){\n        lists[id].recycler=recycler;\n        lists[id].status=Status.recycle;\n        return true;\n    }\n    \n}\n",
  "sourcePath": "/home/lucifer/Desktop/e-waste-project-final/e-waste-project/ewaste-eth/contracts/Ewaste.sol",
  "compiler": {
    "name": "solc",
    "version": "0.5.0+commit.1d4f565a.Emscripten.clang"
  },
  "schemaVersion": "3.0.9",
  "updatedAt": "2019-10-25T17:06:55.735Z",
  "devdoc": {
    "methods": {}
  },
  "userdoc": {
    "methods": {
      "getListForRecycler(uint256,address)": {
        "notice": "aggregator can add the recycler in this function"
      }
    }
  }
}